S021000061746D6567613332384261746A6573436F6E74726F6C6C65722E737265637A
S11300000C9434000C9451000C9451000C94510045
S11300100C9451000C9451000C9451000C94510018
S11300200C9451000C9451000C9451000C94510008
S11300300C9451000C9451000C9451000C945100F8
S11300400C9451000C9451000C9451000C945100E8
S11300500C9451000C9451000C9451000C945100D8
S11300600C9451000C94510011241FBECFEFD8E022
S1130070DEBFCDBF11E0A0E0B1E0E8EFF0E002C0E8
S113008005900D92A030B107D9F711E0A0E0B1E0DE
S113009001C01D92A030B107E1F70E9453000C94F7
S11300A07A000C94000089E190E00E9461000E94B3
S11300B06A000E947200FBCF9093C5008093C40035
S11300C008950E945C0088E18093C10086E08093DB
S11300D0C2000895E0ECF0E080818823ECF7809181
S11300E0C6000895E0ECF0E0908195FFFDCF809389
S10B00F0C6000895F894FFCF47
S9030000FC
